{
  "transactions": [
    {
      "hash": "0x40dd97cf5be0c69e8bdadaf60d6fc4ce2e51407c2ed6f884e3478d786142b0f1",
      "transactionType": "CALL",
      "contractName": null,
      "contractAddress": "0x036cbd53842c5426634e7929541ec2318f3dcf7e",
      "function": "approve(address,uint256)",
      "arguments": [
        "0x394563F080363F34E5B70afa16d369d18bf36545",
        "20000000"
      ],
      "transaction": {
        "from": "0x30217a8c17ef5571639948d118d086c73f823058",
        "to": "0x036cbd53842c5426634e7929541ec2318f3dcf7e",
        "gas": "0x12b1b",
        "value": "0x0",
        "input": "0x095ea7b3000000000000000000000000394563f080363f34e5b70afa16d369d18bf365450000000000000000000000000000000000000000000000000000000001312d00",
        "nonce": "0x1bc",
        "chainId": "0x14a34"
      },
      "additionalContracts": [],
      "isFixedGasLimit": false
    },
    {
      "hash": "0x4e6634785fcc09e57782ef222b751837c1a3ed53836bd744b59a7dc4ea5bc423",
      "transactionType": "CALL",
      "contractName": null,
      "contractAddress": "0x394563f080363f34e5b70afa16d369d18bf36545",
      "function": "donate(uint256)",
      "arguments": [
        "20000000"
      ],
      "transaction": {
        "from": "0x30217a8c17ef5571639948d118d086c73f823058",
        "to": "0x394563f080363f34e5b70afa16d369d18bf36545",
        "gas": "0x1e671",
        "value": "0x0",
        "input": "0xf14faf6f0000000000000000000000000000000000000000000000000000000001312d00",
        "nonce": "0x1bd",
        "chainId": "0x14a34"
      },
      "additionalContracts": [],
      "isFixedGasLimit": false
    }
  ],
  "receipts": [
    {
      "status": "0x1",
      "cumulativeGasUsed": "0x1df752",
      "logs": [
        {
          "address": "0x036cbd53842c5426634e7929541ec2318f3dcf7e",
          "topics": [
            "0x8c5be1e5ebec7d5bd14f71427d1e84f3dd0314c0f7b2291e5b200ac8c7c3b925",
            "0x00000000000000000000000030217a8c17ef5571639948d118d086c73f823058",
            "0x000000000000000000000000394563f080363f34e5b70afa16d369d18bf36545"
          ],
          "data": "0x0000000000000000000000000000000000000000000000000000000001312d00",
          "blockHash": "0x0000000000000000000000000000000000000000000000000000000000000000",
          "blockNumber": "0x24c7cc5",
          "blockTimestamp": "0x69ac586a",
          "transactionHash": "0x40dd97cf5be0c69e8bdadaf60d6fc4ce2e51407c2ed6f884e3478d786142b0f1",
          "transactionIndex": "0xb",
          "logIndex": "0x44",
          "removed": false
        }
      ],
      "logsBloom": "0x00000000040000000000000000000000000000000000000000000000000000000000000000000000000800000000000000000000000000000000000000200000000000000000000000000000000000000000000000000000000000000000000800000000000000000000000000000000000000000000000000000000000000000000000000000000000000000000000000000000000000001000000000000000020000004000000000001000000000000000000000000000000000000000000000000000000000000000000000800000000002000000000000000000000000000010000000000000000000000020000000000000000000000000000000000000",
      "type": "0x2",
      "transactionHash": "0x40dd97cf5be0c69e8bdadaf60d6fc4ce2e51407c2ed6f884e3478d786142b0f1",
      "transactionIndex": "0xb",
      "blockHash": "0x0000000000000000000000000000000000000000000000000000000000000000",
      "blockNumber": "0x24c7cc5",
      "gasUsed": "0xd88d",
      "effectiveGasPrice": "0x5b8d80",
      "blobGasUsed": "0x364c",
      "from": "0x30217a8c17ef5571639948d118d086c73f823058",
      "to": "0x036cbd53842c5426634e7929541ec2318f3dcf7e",
      "contractAddress": null,
      "daFootprintGasScalar": "0x8b",
      "l1BaseFeeScalar": "0x44d",
      "l1BlobBaseFee": "0x8",
      "l1BlobBaseFeeScalar": "0xa118b",
      "l1Fee": "0x433",
      "l1GasPrice": "0x137",
      "l1GasUsed": "0x640"
    },
    {
      "status": "0x1",
      "cumulativeGasUsed": "0x1f5780",
      "logs": [
        {
          "address": "0x036cbd53842c5426634e7929541ec2318f3dcf7e",
          "topics": [
            "0xddf252ad1be2c89b69c2b068fc378daa952ba7f163c4a11628f55a4df523b3ef",
            "0x00000000000000000000000030217a8c17ef5571639948d118d086c73f823058",
            "0x000000000000000000000000394563f080363f34e5b70afa16d369d18bf36545"
          ],
          "data": "0x0000000000000000000000000000000000000000000000000000000001312d00",
          "blockHash": "0x0000000000000000000000000000000000000000000000000000000000000000",
          "blockNumber": "0x24c7cc5",
          "blockTimestamp": "0x69ac586a",
          "transactionHash": "0x4e6634785fcc09e57782ef222b751837c1a3ed53836bd744b59a7dc4ea5bc423",
          "transactionIndex": "0xc",
          "logIndex": "0x45",
          "removed": false
        },
        {
          "address": "0x394563f080363f34e5b70afa16d369d18bf36545",
          "topics": [
            "0x543ba50a5eec5e6178218e364b1d0f396157b3c8fa278522c2cb7fd99407d474",
            "0x00000000000000000000000030217a8c17ef5571639948d118d086c73f823058"
          ],
          "data": "0x0000000000000000000000000000000000000000000000000000000001312d00",
          "blockHash": "0x0000000000000000000000000000000000000000000000000000000000000000",
          "blockNumber": "0x24c7cc5",
          "blockTimestamp": "0x69ac586a",
          "transactionHash": "0x4e6634785fcc09e57782ef222b751837c1a3ed53836bd744b59a7dc4ea5bc423",
          "transactionIndex": "0xc",
          "logIndex": "0x46",
          "removed": false
        }
      ],
      "logsBloom": "0x04000000040000008000000000000000000000000000020000000000000000000000000000000800000800000000000000000000000000000000000000000000000000000000000000000008000000000000000000000000000000000000000800000000000000000000000000000000000000000000000000000010000000000000000000000000000000000000000000000000000000001000000000000000000000004000000000001000000000000000000000000000001000000000000000000002000000000000000000800400000002000000000000000000000000000000000000000000000000000020000000000000000000000000000000000000",
      "type": "0x2",
      "transactionHash": "0x4e6634785fcc09e57782ef222b751837c1a3ed53836bd744b59a7dc4ea5bc423",
      "transactionIndex": "0xc",
      "blockHash": "0x0000000000000000000000000000000000000000000000000000000000000000",
      "blockNumber": "0x24c7cc5",
      "gasUsed": "0x1602e",
      "effectiveGasPrice": "0x5b8d80",
      "blobGasUsed": "0x364c",
      "from": "0x30217a8c17ef5571639948d118d086c73f823058",
      "to": "0x394563f080363f34e5b70afa16d369d18bf36545",
      "contractAddress": null,
      "daFootprintGasScalar": "0x8b",
      "l1BaseFeeScalar": "0x44d",
      "l1BlobBaseFee": "0x8",
      "l1BlobBaseFeeScalar": "0xa118b",
      "l1Fee": "0x433",
      "l1GasPrice": "0x137",
      "l1GasUsed": "0x640"
    }
  ],
  "libraries": [],
  "pending": [],
  "returns": {},
  "timestamp": 1772902504,
  "chain": 84532,
  "commit": "fb0b0f3"
}