{
  "transactions": [
    {
      "hash": "0xba3ec5b0204a6f7d5afa7af8318b817ff5d8d7a524d84a725628a6ecba7c9d86",
      "transactionType": "CALL",
      "contractName": null,
      "contractAddress": "0x036cbd53842c5426634e7929541ec2318f3dcf7e",
      "function": "approve(address,uint256)",
      "arguments": [
        "0x394563F080363F34E5B70afa16d369d18bf36545",
        "20000000"
      ],
      "transaction": {
        "from": "0x30217a8c17ef5571639948d118d086c73f823058",
        "to": "0x036cbd53842c5426634e7929541ec2318f3dcf7e",
        "gas": "0x12b1b",
        "value": "0x0",
        "input": "0x095ea7b3000000000000000000000000394563f080363f34e5b70afa16d369d18bf365450000000000000000000000000000000000000000000000000000000001312d00",
        "nonce": "0x1e6",
        "chainId": "0x14a34"
      },
      "additionalContracts": [],
      "isFixedGasLimit": false
    },
    {
      "hash": "0xf3c6390b5d320c38d410a68c86e6ba72c5cda41ccc1de33f12e503ae8461041f",
      "transactionType": "CALL",
      "contractName": null,
      "contractAddress": "0x394563f080363f34e5b70afa16d369d18bf36545",
      "function": "donate(uint256)",
      "arguments": [
        "20000000"
      ],
      "transaction": {
        "from": "0x30217a8c17ef5571639948d118d086c73f823058",
        "to": "0x394563f080363f34e5b70afa16d369d18bf36545",
        "gas": "0x12deb",
        "value": "0x0",
        "input": "0xf14faf6f0000000000000000000000000000000000000000000000000000000001312d00",
        "nonce": "0x1e7",
        "chainId": "0x14a34"
      },
      "additionalContracts": [],
      "isFixedGasLimit": false
    }
  ],
  "receipts": [
    {
      "status": "0x1",
      "cumulativeGasUsed": "0x26673a",
      "logs": [
        {
          "address": "0x036cbd53842c5426634e7929541ec2318f3dcf7e",
          "topics": [
            "0x8c5be1e5ebec7d5bd14f71427d1e84f3dd0314c0f7b2291e5b200ac8c7c3b925",
            "0x00000000000000000000000030217a8c17ef5571639948d118d086c73f823058",
            "0x000000000000000000000000394563f080363f34e5b70afa16d369d18bf36545"
          ],
          "data": "0x0000000000000000000000000000000000000000000000000000000001312d00",
          "blockHash": "0x0000000000000000000000000000000000000000000000000000000000000000",
          "blockNumber": "0x24e2c85",
          "blockTimestamp": "0x69afb7ea",
          "transactionHash": "0xba3ec5b0204a6f7d5afa7af8318b817ff5d8d7a524d84a725628a6ecba7c9d86",
          "transactionIndex": "0xd",
          "logIndex": "0x63",
          "removed": false
        }
      ],
      "logsBloom": "0x00000000040000000000000000000000000000000000000000000000000000000000000000000000000800000000000000000000000000000000000000200000000000000000000000000000000000000000000000000000000000000000000800000000000000000000000000000000000000000000000000000000000000000000000000000000000000000000000000000000000000001000000000000000020000004000000000001000000000000000000000000000000000000000000000000000000000000000000000800000000002000000000000000000000000000010000000000000000000000020000000000000000000000000000000000000",
      "type": "0x2",
      "transactionHash": "0xba3ec5b0204a6f7d5afa7af8318b817ff5d8d7a524d84a725628a6ecba7c9d86",
      "transactionIndex": "0xd",
      "blockHash": "0x0000000000000000000000000000000000000000000000000000000000000000",
      "blockNumber": "0x24e2c85",
      "gasUsed": "0xd88d",
      "effectiveGasPrice": "0x5b8d80",
      "blobGasUsed": "0x364c",
      "from": "0x30217a8c17ef5571639948d118d086c73f823058",
      "to": "0x036cbd53842c5426634e7929541ec2318f3dcf7e",
      "contractAddress": null,
      "daFootprintGasScalar": "0x8b",
      "l1BaseFeeScalar": "0x44d",
      "l1BlobBaseFee": "0x1",
      "l1BlobBaseFeeScalar": "0xa118b",
      "l1Fee": "0x5a",
      "l1GasPrice": "0xe",
      "l1GasUsed": "0x640"
    },
    {
      "status": "0x1",
      "cumulativeGasUsed": "0x2741d0",
      "logs": [
        {
          "address": "0x036cbd53842c5426634e7929541ec2318f3dcf7e",
          "topics": [
            "0xddf252ad1be2c89b69c2b068fc378daa952ba7f163c4a11628f55a4df523b3ef",
            "0x00000000000000000000000030217a8c17ef5571639948d118d086c73f823058",
            "0x000000000000000000000000394563f080363f34e5b70afa16d369d18bf36545"
          ],
          "data": "0x0000000000000000000000000000000000000000000000000000000001312d00",
          "blockHash": "0x0000000000000000000000000000000000000000000000000000000000000000",
          "blockNumber": "0x24e2c85",
          "blockTimestamp": "0x69afb7ea",
          "transactionHash": "0xf3c6390b5d320c38d410a68c86e6ba72c5cda41ccc1de33f12e503ae8461041f",
          "transactionIndex": "0xe",
          "logIndex": "0x64",
          "removed": false
        },
        {
          "address": "0x394563f080363f34e5b70afa16d369d18bf36545",
          "topics": [
            "0x543ba50a5eec5e6178218e364b1d0f396157b3c8fa278522c2cb7fd99407d474",
            "0x00000000000000000000000030217a8c17ef5571639948d118d086c73f823058"
          ],
          "data": "0x0000000000000000000000000000000000000000000000000000000001312d00",
          "blockHash": "0x0000000000000000000000000000000000000000000000000000000000000000",
          "blockNumber": "0x24e2c85",
          "blockTimestamp": "0x69afb7ea",
          "transactionHash": "0xf3c6390b5d320c38d410a68c86e6ba72c5cda41ccc1de33f12e503ae8461041f",
          "transactionIndex": "0xe",
          "logIndex": "0x65",
          "removed": false
        }
      ],
      "logsBloom": "0x04000000040000008000000000000000000000000000020000000000000000000000000000000800000800000000000000000000000000000000000000000000000000000000000000000008000000000000000000000000000000000000000800000000000000000000000000000000000000000000000000000010000000000000000000000000000000000000000000000000000000001000000000000000000000004000000000001000000000000000000000000000001000000000000000000002000000000000000000800400000002000000000000000000000000000000000000000000000000000020000000000000000000000000000000000000",
      "type": "0x2",
      "transactionHash": "0xf3c6390b5d320c38d410a68c86e6ba72c5cda41ccc1de33f12e503ae8461041f",
      "transactionIndex": "0xe",
      "blockHash": "0x0000000000000000000000000000000000000000000000000000000000000000",
      "blockNumber": "0x24e2c85",
      "gasUsed": "0xda96",
      "effectiveGasPrice": "0x5b8d80",
      "blobGasUsed": "0x364c",
      "from": "0x30217a8c17ef5571639948d118d086c73f823058",
      "to": "0x394563f080363f34e5b70afa16d369d18bf36545",
      "contractAddress": null,
      "daFootprintGasScalar": "0x8b",
      "l1BaseFeeScalar": "0x44d",
      "l1BlobBaseFee": "0x1",
      "l1BlobBaseFeeScalar": "0xa118b",
      "l1Fee": "0x5a",
      "l1GasPrice": "0xe",
      "l1GasUsed": "0x640"
    }
  ],
  "libraries": [],
  "pending": [],
  "returns": {},
  "timestamp": 1773123561,
  "chain": 84532,
  "commit": "fb0b0f3"
}